:1000000000200020F9000000230800002308000061
:100010002308000023080000230800002108000036
:10002000210800002108000021080000230800002A
:100030002308000021080000230800002508000014
:100040002308000023080000230800002308000004
:1000500023080000230800002308000023080000F4
:1000600023080000230800002308000023080000E4
:1000700023080000230800002308000023080000D4
:10008000D50C000023080000BD0E0000230800006E
:10009000651000002308000023080000230800006A
:1000A00023080000230800002308000023080000A4
:1000B00023080000230800001106000029060000A4
:1000C0004106000059060000230800001513000037
:1000D0002308000023080000230800002308000074
:1000E000AD080000FD08000085090000410A00007D
:1000F000C50A0000230800004A4B4CF2205210B5FC
:100100001A804DF628121A80102223F80E2C00F0C7
:1001100091FB454B454A1A60454A5A60454B1A685F
:1001200012F4807204D144490A604FF4A8521A6054
:10013000424B1A7802F00802D2B21AB11A7842F091
:1001400008021A7000233E4A3E483F4C02E019590B
:100150009950043399188142F9D33C4B3C4A002111
:1001600001E043F8041B9342FBD33A4B00221A6090
:10017000394B0A221A70394B24221A70A02203F834
:10018000012C374A137803F00203DBB2002BF9D0BD
:10019000334A137803F01003DBB2002BF9D1304A55
:1001A000137803F00C03082BFAD12E4B03221A709C
:1001B00040225A702A4A137803F02003DBB2002B46
:1001C000F9D0274A137803F04003DBB2002BF9D0B3
:1001D000254A264B1A60264B20221A70204A137893
:1001E00003F00C030C2BFAD1224B02221A60224A94
:1001F00043F8442C214B45F6BF521A60072243F8BE
:10020000042C62B600F086FC0B4B1B68DB0702D5A2
:100210001B4800F06FFC01F075FD00F00BFB00F0D7
:10022000F7FAFEE70E20054038800440823F0400C4
:100230000100002B10D0034014D0034002D007402F
:1002400000E4FF1FB4E9FF1F44280000B4E9FF1FCA
:10025000FCEDFF1F08ED00E00050064001400640A5
:10026000064006400440064000000333448004403A
:100270000040064048800440C010050014E000E043
:10028000F51A6351FFFFFFFFFFFFFFFFFFFFFFFFB7
:10029000FFFFFFFFFFFFFFFFFFFFFFFFFFFFFFFF6E
:1002A000FFFFFFFFFFFFFFFFFFFFFFFFFFFFFFFF5E
:1002B000FFFFFFFFFFFFFFFFFFFFFFFFFFFFFFFF4E
:1002C000FFFFFFFFFFFFFFFFFFFFFFFFFFFFFFFF3E
:1002D000FFFFFFFFFFFFFFFFFFFFFFFFFFFFFFFF2E
:1002E000FFFFFFFFFFFFFFFFFFFFFFFFFFFFFFFF1E
:1002F000FFFFFFFFFFFFFFFFFFFFFFFFFFFFFFFF0E
:10030000FFFFFFFFFFFFFFFFFFFFFFFFFFFFFFFFFD
:10031000FFFFFFFFFFFFFFFFFFFFFFFFFFFFFFFFED
:10032000FFFFFFFFFFFFFFFFFFFFFFFFFFFFFFFFDD
:10033000FFFFFFFFFFFFFFFFFFFFFFFFFFFFFFFFCD
:10034000FFFFFFFFFFFFFFFFFFFFFFFFFFFFFFFFBD
:10035000FFFFFFFFFFFFFFFFFFFFFFFFFFFFFFFFAD
:10036000FFFFFFFFFFFFFFFFFFFFFFFFFFFFFFFF9D
:10037000FFFFFFFFFFFFFFFFFFFFFFFFFFFFFFFF8D
:10038000FFFFFFFFFFFFFFFFFFFFFFFFFFFFFFFF7D
:10039000FFFFFFFFFFFFFFFFFFFFFFFFFFFFFFFF6D
:1003A000FFFFFFFFFFFFFFFFFFFFFFFFFFFFFFFF5D
:1003B000FFFFFFFFFFFFFFFFFFFFFFFFFFFFFFFF4D
:1003C000FFFFFFFFFFFFFFFFFFFFFFFFFFFFFFFF3D
:1003D000FFFFFFFFFFFFFFFFFFFFFFFFFFFFFFFF2D
:1003E000FFFFFFFFFFFFFFFFFFFFFFFFFFFFFFFF1D
:1003F000FFFFFFFFFFFFFFFFFFFFFFFFFFFFFFFF0D
:10040000FFFFFFFFFFFFFFFFFFFFFFFFFEFFFFFFFD
:1004100008B54EF6B410074BC1F6FF701B1A062B39
:1004200000D808BD40F20003C0F20003002BF8D052
:100430009847F6E7B7E9FF1F08B54EF6B4104EF639
:10044000B413C1F6FF70C1F6FF731B1A9B1003EBC8
:10045000D373591000D108BD40F20002C0F200026F
:10046000002AF8D09047F6E710B54EF6B414C1F65E
:10047000FF74237873B9FFF7CBFF40F20003C0F29B
:1004800000032BB142F64400C0F20000AFF300803D
:100490000123237010BD00BF08B540F20003C0F275
:1004A00000034BB142F644004EF6B811C0F2000012
:1004B000C1F6FF71AFF300804EF6B410C1F6FF70C5
:1004C00003682BB140F20003C0F2000303B1984768
:1004D000BDE80840FFF7B0BF10B508461446114606
:1004E00000F076FB204610BD084608B500F046FB3C
:1004F000012008BD00F0AABB00F0C2BB00F0D8BBD1
:1005000000F0B0BB044B00221A711A73034A4FF477
:100510007A7199601A607047D0E9FF1F3027000098
:1005200010B508461446114600F078FC204610BD70
:10053000084608B500F048FC012008BD00F07ABC70
:1005400000F092BC00F0A8BC00F080BC044B00227C
:100550001A711A73034A4FF47A7199601A607047DE
:10056000E0E9FF1F5027000010B508461446114669
:1005700000F028FD204610BD084608B500F0F8FC44
:10058000012008BD00F02ABD00F042BD00F058BDBA
:1005900000F030BD044B00221A711A73034A4FF465
:1005A0007A7199601A607047F0E9FF1F70270000A8
:1005B0002DE9F041002407460D4626463B190A2244
:1005C00019792846002300F08AF82B6880462E21EE
:1005D0001B682846984701344044032C0644EDD15B
:1005E0002846F9790A22002300F079F88019BDE83D
:1005F000F081FFFF044B054A1A6000221A715A71FC
:100600009A71DA71704700BF00EAFF1F902700005F
:1006100008B5034B01221A60024B1B68984708BDBE
:100620000C71034010EAFF1F08B5034B01221A604A
:10063000024B5B68984708BD1C71034010EAFF1F1E
:1006400008B5034B01221A60024B9B68984708BD0E
:100650002C71034010EAFF1F08B5034B01221A60FA
:10066000024BDB68984708BD3C71034010EAFF1F4E
:10067000054B01221A60054B1A6822F400021A6029
:10068000034B00221A707047007003403C80044006
:100690000CEAFF1F037B0122591103F01F0302FA2A
:1006A00003F3084A42F8213082680023136041783E
:1006B000054A5354D15C21B90133042BFAD1FFF719
:1006C000D7BF704780E100E008EAFF1F037810B54C
:1006D00004460BB1FFF7DEFF0023237010BDF0B519
:1006E00005468BB022B90368C9B21B6898472CE055
:1006F000012A08BF0A2221B930228DF825202124A1
:1007000013E02124B1FBF2F002FB1011C9B2092958
:1007100001D8303100E037310AAF3E1906F8241C09
:10072000014610B1013CE4B2ECE733B1013C0AAA46
:10073000E4B213192D2203F8242C2B6801AF5B6857
:1007400028463919C4F1220298470BB0F0BD10B504
:100750000446FFF7BBFF204610BDFFFF03480449D6
:10076000044A0023037001F0BDBA00BF20EAFF1F56
:100770004F07000000E4FF1F1C4B60221A70E122AB
:100780005A701B4B1B4A19781B4B082901D10021B9
:1007900002E00A2903D138211160132206E00C2956
:1007A00001D1342100E03C21116012221A60134B68
:1007B0001A78134B02B101221A60124B1A78124BAD
:1007C000012A01D880220CE0042A01D8842208E002
:1007D000082A01D8852204E0102A01D8862200E0E8
:1007E00087221A60094B01221A70704700400740A7
:1007F00004E4FF1F08B003400CB0034035EAFF1FBC
:1008000020B0034005E4FF1F24B0034034EAFF1F7B
:1008100008B501F065FA01F064FA01F04BFAFAE765
:10082000FEE7FEE7024B1A6801321A60704700BF0C
:10083000C0EAFF1F7047FFFF024A136818181060D4
:100840001846704708E4FF1F10B50023B0FBF2F410
:1008500002FB1400092801D8303000E03730C854BA
:1008600020460CB10133F1E7CA185470224605E066
:10087000885CCC5C8C54C8540132013B9A42F7DB53
:10088000084610BD084B4FF480721A604FF4007296
:100890001A604FF480621A604FF400621A604FF4DD
:1008A00080521A60704700BF04E100E0114B10B5A0
:1008B0001C68E0041C6004D50F4BDA680AB1DB68E1
:1008C0009847A10404D50C4B1A690AB11B699847D3
:1008D000A20604D5084B1A6E0AB11B6E9847E306B0
:1008E00006D5054BD3F8842012B1D3F8843098474D
:1008F00010BD00BFA090044038EAFF1F1F4B10B589
:100900001C68E0031C6004D51D4B1A680AB11B6803
:100910009847A10304D51A4B5A680AB15B689847F7
:10092000E20704D5164B1A6C0AB11B6C9847A30753
:1009300004D5134B5A6C0AB15B6C9847200704D559
:100940000F4B9A6C0AB19B6C9847610704D50C4B0E
:10095000DA6C0AB1DB6C9847220304D5084B5A6E57
:100960000AB15B6E9847630306D5054BD3F8802028
:1009700012B1D3F88030984710BD00BFA0A004404A
:1009800038EAFF1F2C4B10B51C6820071C6004D5EB
:100990002A4B5A6A0AB15B6A9847E10604D5274B8D
:1009A0009A6A0AB19B6A9847620604D5234BDA6AB1
:1009B0000AB1DB6A9847230604D5204B1A6B0AB1AB
:1009C0001B6B9847A00604D51C4B5A6B0AB15B6B96
:1009D0009847E10704D5194BDA6B0AB1DB6B9847EE
:1009E000A20704D5154B9A6D0AB19B6D9847630712
:1009F00004D5124BDA6D0AB1DB6D9847A00504D51A
:100A00000E4BDA6E0AB1DB6E9847E10504D50B4B4D
:100A10001A6F0AB11B6F9847620504D5074B5A6FCE
:100A20000AB15B6F9847230504D5044B9A6F0AB14E
:100A30009B6F984710BD00BFA0B0044038EAFF1F6D
:100A40001E4B10B51C68E0071C6004D51C4B9A684F
:100A50000AB19B689847210604D5194B5A690AB117
:100A60005B699847E20604D5154B9A690AB19B6900
:100A70009847630704D5124BDA690AB1DB699847D6
:100A8000200704D50E4B1A6A0AB11B6A9847A107C2
:100A900004D50B4B9A6B0AB19B6B9847A20604D501
:100AA000074B1A6D0AB11B6D9847630604D5044BBA
:100AB0005A6D0AB15B6D984710BD00BFA0C00440DD
:100AC00038EAFF1F094B10B51C68A2071C6004D54B
:100AD000074B9A6E0AB19B6E9847E30704D5044B07
:100AE000DA6F0AB1DB6F984710BD00BFA0D0044099
:100AF00038EAFF1F044B054900221A600A60044AC5
:100B0000106010221A60704714D0034004D00340D4
:100B100000D0034010B5FFF7B5FE114B114A124C3F
:100B200000204BF6FF711860596028231360936012
:100B300013619361136293621363936308222260CB
:100B40000A4C20600A4801600A490B608B600A4B1E
:100B50001A60FFF711FEBDE8104000F0F1BE00BFC3
:100B6000048003400C800340008003400490034055
:100B7000089003400C900340009003400E4B1B680C
:100B80005A0570B5064616D50C4B0D4D1C78013430
:100B90003F2C88BF002401E001F08CF82B78A342A1
:100BA000FAD0084B1E55084B01221A70034B1C70DB
:100BB000064BBC221A7070BD3480044048EBFF1F06
:100BC00047EBFF1FC6EAFF1FC4EAFF1F03A0064052
:100BD000184B1B682DE9F0478A465905064627D56C
:100BE0000546154FDFF860801BE03C7898F80090D0
:100BF00001343F2C88BF0024A14508D015F8012BF3
:100C00000E4B1A550E4B01221A703C7009E00D4B29
:100C1000BC221A7001F04EF898F800304B45F9D01C
:100C2000ECE706EB0A039D42DFD3064BBC221A70A9
:100C3000BDE8F0873480044048EBFF1FC6EAFF1F81
:100C4000C4EAFF1F03A0064047EBFF1F10B5044C8A
:100C500001E001F02FF82378002BFAD110BD00BF7E
:100C6000C4EAFF1F044B1878044B1B78984238BF26
:100C70004030C01A704700BF46EBFF1FC5EAFF1F98
:100C8000084B094A19781378994208D00133DBB22E
:100C90003F2B88BF00230549C85C137070474FF095
:100CA000FF30704746EBFF1FC5EAFF1F06EBFF1F33
:100CB000054B1A78054B1B789A4202D0044AD05C47
:100CC00070474FF0FF30704746EBFF1FC5EAFF1F2C
:100CD00006EBFF1FF0B52F4B1B7813F0300F21D020
:100CE00072B62D4B197831B90F3B40221B782B4B34
:100CF0001A7062B616E062B6294B2A4C1A782A4B53
:100D00002A4D1878531CDBB23F2B88BF002326786E
:100D100083421CBFEE541A46013911F0FF01F1D194
:100D20001F4B1A70224B1B7819465BB2002B20DA3E
:100D3000184A137818061CD51E4B1F4E1F781F4BE0
:100D4000184D1B781E4CBB420AD00133DBB23F2B3F
:100D500088BF00231078F05C287020780728F2D92B
:100D6000164A13700B4B1B781B0602D5104B7C22C6
:100D70001A7001F04003DBB25BB1064B1B7803F045
:100D80004003DBB22BB10F4B00221A70084B3C2200
:100D90001A70F0BD04A0064016A0064011A006403F
:100DA00046EBFF1F07A00640C5EAFF1F06EBFF1F2B
:100DB00003A0064048EBFF1FC6EAFF1F47EBFF1FDB
:100DC00014A00640C4EAFF1F0E4B1B681A0570B53D
:100DD000064616D50C4B0D4D1C780134272C88BFC8
:100DE000002401E000F066FF2B78A342FAD0084B04
:100DF0001E55084B01221A70034B1C70064BAC2287
:100E00001A7070BD34800440B5EBFF1FB4EBFF1FB8
:100E10004BEBFF1F49EBFF1F03B0064038B54518E9
:100E2000044603E014F8010BFFF7CEFFAC42F9D102
:100E300038BDFFFF10B5044C01E000F03BFF237804
:100E4000002BFAD110BD00BF49EBFF1F044B1878EF
:100E5000044B1B78984238BF4030C01A704700BF1F
:100E6000B3EBFF1F4AEBFF1F084B094A19781378B1
:100E7000994208D00133DBB23F2B88BF00230549DC
:100E8000C85C137070474FF0FF307047B3EBFF1F23
:100E90004AEBFF1F73EBFF1F054B1A78054B1B78BE
:100EA0009A4202D0044AD05C70474FF0FF3070473E
:100EB000B3EBFF1F4AEBFF1F73EBFF1F10B5224B75
:100EC0001B7803F02003DBB27BB1204B204A18785B
:100ED000137820490133DBB209783F2B88BF002308
:100EE0008B4202D01C49C85413701C490B78184619
:100EF0005BB2002B16DA144B1B781B0612D5184B6D
:100F0000184A1C7813789C4202D16C230B7009E0BC
:100F10000133DBB2272B88BF00231349CC5C0B497C
:100F20000C70137000F04003DBB25BB1064B1B7812
:100F300003F04003DBB22BB10C4B00221A70074BBD
:100F40002C221A7010BD00BF04B0064007B0064046
:100F5000B3EBFF1F4AEBFF1F73EBFF1F03B006400D
:100F6000B5EBFF1FB4EBFF1F4BEBFF1F49EBFF1F60
:100F70000E4B1B68DA0470B5064616D50C4B0D4DAA
:100F80001C780134272C88BF002401E000F092FE79
:100F90002B78A342FAD0084B1E55084B01221A7039
:100FA000034B1C70064BAC221A7070BD3480044099
:100FB00022ECFF1F21ECFF1FB8EBFF1FB6EBFF1F5A
:100FC00003C0064038B54518044603E014F8010B89
:100FD000FFF7CEFFAC42F9D138BDFFFF10B5044C8E
:100FE00001E000F067FE2378002BFAD110BD00BFAE
:100FF000B6EBFF1F044B1878044B1B78984238BFA0
:101000004030C01A704700BF20ECFF1FB7EBFF1F36
:10101000084B094A19781378994208D00133DBB29A
:101020003F2B88BF00230549C85C137070474FF001
:10103000FF30704720ECFF1FB7EBFF1FE0EBFF1FF7
:10104000054B1A78054B1B789A4202D0044AD05CB3
:1010500070474FF0FF30704720ECFF1FB7EBFF1FCA
:10106000E0EBFF1F10B5224B1B7803F02003DBB22F
:101070007BB1204B204A1878137820490133DBB22A
:1010800009783F2B88BF00238B4202D01C49C854EB
:1010900013701C490B7818465BB2002B16DA144B00
:1010A0001B781B0612D5184B184A1C7813789C42E3
:1010B00002D16C230B7009E00133DBB2272B88BF10
:1010C00000231349CC5C0B490C70137000F04003F3
:1010D000DBB25BB1064B1B7803F04003DBB22BB1F4
:1010E0000C4B00221A70074B2C221A7010BD00BF47
:1010F00004C0064007C0064020ECFF1FB7EBFF1FEF
:10110000E0EBFF1F03C0064022ECFF1F21ECFF1F96
:10111000B8EBFF1FB6EBFF1F1FB572B6124B702264
:101120001A70124A412111700F2102F8011C80220D
:101130001A701A781206FCD562B60D4B01A9186810
:101140000A22FFF781FB0B48002301AA9A5C2AB10F
:1011500000EB430101330A2B4A80F6D10133054AE3
:101160005B00137005B000BD0000024007000240A4
:101170000800024094E4FF1FF0B50C4B0C4C1A78A9
:1011800042F0020504EBC50682F0010270600948D6
:101190001A700678002E0CBF8827C82747EA01413D
:1011A00086F0010644F835100670F0BD8CECFF1F88
:1011B00000E0FF1F04EDFF1F431E032B10B510D8E6
:1011C00072B6094A52F8230010B1416842F8231060
:1011D000064A018832F81340611A22F8131062B6E9
:1011E00010BD002010BD00BF7CECFF1FE8EDFF1F0D
:1011F000013803280BD8074B53F8203072B6002073
:1012000001E05B680130002BFBD162B67047002023
:10121000704700BFD0ECFF1F70B572B6184E194C66
:1012200001239A1912F8012C02F00802D2B2E2B19D
:101230009900144A54F831502DB902EB4313083089
:101240005860114B09E041F0010154F8315065B983
:1012500002EBC103083058600C4B42F831300C4BA4
:101260001A78013A1A7062B670BD0133052BD8D1D5
:1012700062B6074B00221A70BDE8704000F0E4BB74
:101280009827000000E0FF1F88004000C8004000D1
:10129000FAECFF1F431E032B30B532D84001194A28
:1012A00040F01000101872B6174CE25C032A09D8FF
:1012B000DFE802F0160218050830022213E00830B9
:1012C000042210E01148124A50F8234014B940F8A3
:1012D000231002E052F82300416042F823100FE08F
:1012E000032200E00522E25410F0080F01F1080388
:1012F0000A8843600CBF8823C82343EA0243036083
:1013000062B630BD00E0FF1F38ECFF1FD0ECFF1FBE
:10131000E0ECFF1F2DE9F74FA34EA44C357805F004
:101320000403DBB2ABB1A24B1B7883B1A14A1378A3
:1013300023B1013BDBB2137003B900BE9E4A1378A0
:101340002BB1013BDBB213700BB900F091FC04230D
:10135000337005F00802D2B2002A00F07B82974B6E
:101360001B781D094FEA930940F0F98104EBC9038A
:10137000586854F83930C3F38303013B0C2B00F257
:10138000EB81DFE813F0A401A401E901E901E9011F
:10139000E901E901E901C001E901E901E9010D0003
:1013A0004368874A01685360864B874844F8393060
:1013B000864D1160002303600120287089B240F23D
:1013C0008165A9422361A36119D8B1F5D06F80F07E
:1013D0002881B1F5817F00F0D88006D8802900F0FF
:1013E000BE80822940F03981BDE040F20230814266
:1013F00000F00881B1F5A06F40F02F8131E1B1F527
:10140000106F10D004D8B1F5086F40F02681A0E02D
:1014100042F22100814200F0578100F500708142C4
:1014200040F01B8115E19278614B604D1A702B6A78
:10143000180603D5686A083800F006FB644A0835C8
:101440009542F4D1DFF8B091DFF8B0B10025A8469D
:10145000CA4655F8090005E04368009300F0F4FA25
:10146000009B18460028F7D15A4B4AF8050045F86A
:101470000B00E85807E042680093019200F0E4FA9C
:10148000019A009B10460028F5D15851524BE85064
:10149000524B23F81800524B18F80320023A032A43
:1014A00008D8DFE802F002040204002200E0012272
:1014B00003F8082008F101080435B8F1040FC8D179
:1014C000484BDFF83C9100221A7001259846464BA4
:1014D00005EB0902EB1812F8012C9B001A7002F0C0
:1014E0000802D2B23AB300F091FAAB0038B104EB83
:1014F0004512083050603D4A44F8332006E044F875
:10150000330098F80030013388F8003000F07EFA9C
:10151000AB0043F0010338B104EBC3020830506064
:10152000284A44F8332006E044F8330098F80030A5
:10153000013388F80030AA0042F00201013542F080
:1015400003020023052D44F8313044F83230BED177
:1015500087E0174B264D1B782B70034684E0244D03
:101560002B706B707FE09288042A00D975E0204DC3
:101570002B706B701F4B9200D3181B7803F0020383
:10158000DBB2002B6FD028706DE0918801F07F03F3
:10159000042B62DC538803B15FE0164A89008A1885
:1015A000117821F0020156E08020074000E0FF1F83
:1015B00003EDFF1F8DECFF1F18EDFF1F902007406C
:1015C000F0ECFF1FC800400024ECFF1F04EDFF1FDC
:1015D00068E0FF1FD0ECFF1FE0ECFF1FE8EDFF1FEE
:1015E00038ECFF1FFAECFF1F30C8011088004000E4
:1015F000FBECFF1FC02007407CECFF1F28ECFF1F07
:1016000098270000918801F07F03042B25DC538884
:1016100003B122E0A04A89008A18117841F0020142
:1016200019E051889D4B928853F8085CA3F10C0097
:101630009DB133F80CCC8C4509D133F80ACC9445D4
:1016400005D1090A03290CBF2B7803890CE00C3360
:10165000EAE79178924A117003E08F4B0F221A70DB
:1016600032E01D4600E002238E4AB2F806904B4558
:1016700038BF9946B9F1400F34BFC8464FF0400813
:1016800028464146FFF778FDB9EB0809454403D1E8
:10169000B8F1400F07D017E0B9F1400F34BFC8468A
:1016A0004FF0400800E0C84628464146FFF764FD79
:1016B000B9EB0809454402D1B8F1400F04D17A4B87
:1016C0007A4A1D60A2F800900122794B43E0754BE5
:1016D0001A8842F221039A4211D1764A0023C15C52
:1016E00099540133072BFAD1724B1B68862B02D118
:1016F000714B0F221A7000200146FFF73DFD6F4B22
:1017000044F8393028E0684BD3F80080B8F1000F76
:1017100018D0DFF89891B9F800A0BAF1400F34BFA3
:101720005546402540462946FFF726FDC5EB0A03EE
:101730009BB2A9F800300BB9402D01D108EB05038D
:10174000594A1360574B1A88B2F5A06F04D1002292
:101750005A709A785A4B1A700122554B6DE004EB7F
:10176000C90803F00803D8F80420013DD9B2A2F15A
:101770000800EDB2002937D000F066F95148524B0D
:1017800050F82510F1B14A6840F8252001F108020F
:10179000C8F804205A5D032A0BD8DFE802F00204DF
:1017A0000608032204E0022202E0052200E00422EF
:1017B0005A5518F0080F0A880CBF8823C82343EA3B
:1017C000024342E05A5D032A07D8DFE802F04040B6
:1017D0000204002206E0012204E018F0080F0CBF0A
:1017E000022203225A5532E054F839301B0C22F8F9
:1017F000083C23B322F8061C42F8041C334A34493F
:1018000052F8257017B942F8250002E051F825205A
:101810005060304A41F8250032F815105B1822F864
:10182000153000F0F3F818B10830C8F8040006E0ED
:10183000294B44F839001A7801321A7007E01F4B1F
:10184000264A18F0080F08BF134644F83930082319
:10185000337063E5E90751D515492048204C022330
:101860000B70204B1A70204B186098601F481A614B
:10187000D8609A615C60084B0D2018701C48FF23EB
:10188000037000F8083C02741A4A13701A4B9F2226
:101890001A7001230B704AE0C0200740A8270000FF
:1018A00028EDFF1FF0ECFF1F24ECFF1FF8ECFF1FDB
:1018B00094200740F0EDFF1F8DECFF1FC800400093
:1018C00098200740D0ECFF1F38ECFF1F7CECFF1F77
:1018D00028ECFF1FE8EDFF1FFAECFF1F8800400017
:1018E0003CECFF1F8CECFF1F00E0FF1F90ECFF1F84
:1018F000882007408C200740842007402B0605D510
:101900000C4B0D221A70802203F8402C05F00203C4
:10191000DBB22BB1084B1A781A70022203F8082C9C
:1019200005F01005EDB215B1044B10221A70BDE898
:10193000FE8F00BFC020074088200740802007405E
:1019400008B5FFF7E9FB00231B491A465A50C8188F
:101950000833882B4260F9D1184B1A6842F4802270
:101960001A60174B80221A701978154A0906FBD4A1
:10197000114B1449C3F307200870C3F307401B0E33
:1019800008750B76FF2301F81C3C01F8143C01F8A4
:101990008C3C137843F0400313700021012302F8BC
:1019A000783C02F80C1C02F8883C074B08221A60AD
:1019B000064B10221A7008BD00E0FF1F348004405F
:1019C0000C2107409C20074004E100E0082107406B
:1019D0000846114600F0AEB8084600F013B900F012
:1019E0001BB900F07BB800F051B800F095B8FFFFCC
:1019F000044B00221A711A73034A4FF47A719960EA
:101A00001A60704708EDFF1FF827000072B60C4AF5
:101A10001168B1FA81F30B2B02D962B6002070472E
:101A20004FF0004020FA03F021EA0001116062B695
:101A3000044948225343C8180022CA5042607047E4
:101A4000ACE4FF1FA0E0FF1F0C4B4822C31AB3FBFE
:101A5000F2F30B2B11D80A4A127822B1094A1278F4
:101A60000AB1FFF7D9BB72B6074A4FF0004121FA1D
:101A700003F311681943116062B67047A0E0FF1FBD
:101A8000FAECFF1F03EDFF1FACE4FF1F38B5114C4C
:101A900023684BB10F4D28684288811801320C7AB7
:101AA00001888A4212D30CE00B4B1B7813B94FF01C
:101AB000FF340CE00320FFF77FFB20600028E9D112
:101AC000F5E7FFF7C1FF00232B6000E042802046CE
:101AD00038BD00BF24EDFF1F03EDFF1F10B50C4CF8
:101AE00023681BB10A4B1B686BB902E0094B1B78DA
:101AF00013B94FF0FF3010BD0320FFF75DFB2060EE
:101B00000028EFD1F5E75A889B18187A10BD00BF5E
:101B100024EDFF1F03EDFF1F044B9888044B1B6847
:101B20001BB11A885B88D31AC0187047E8EDFF1FF5
:101B300024EDFF1F2DE9F8432D4B2E4DDFF8C0801B
:101B400001220C461A7006464BE02B682BBBDFF8CF
:101B5000A09044F2A57798F8003013B9244A137086
:101B600014E00420FFF744FB072808D8012389F874
:101B70000030FFF74BFF286078B989F80000013F7B
:101B80001D4B01D01A782AB101221A704FF0FF3094
:101B9000BDE8F88300F08EF8DDE72968164A48882A
:101BA00000231370C0F14002944238BF224600F176
:101BB00008078018CF194880A41A02E0F05CF85496
:101BC00001339342FAD1F6184B883F2B06D94023B4
:101BD0000B800420FFF75EFB00232B60074B0522E0
:101BE0001A70002CB1D1024B20461C70BDE8F8835E
:101BF00019EDFF1F1CEDFF1F20EDFF1F18EDFF1F4C
:101C000003EDFF1F07B502AB012103F8010D1846D4
:101C1000FFF790FF0EBDFFFFF8B5114B1B78EBB13E
:101C2000104E114B3468114D01271F704CB1638861
:101C300000272F70042023802146FFF72BFB3760FD
:101C400009E0FFF7E3FE014620B104202C70FFF706
:101C500021FB00E02F70044B00221A70F8BD00BF7A
:101C600003EDFF1F1CEDFF1F19EDFF1F18EDFF1FF8
:101C700038B50D4B1D78ADB90C4C216831B14B888E
:101C800004200B80FFF706FB256038BDFFF7BEFE82
:101C9000014620B10420BDE83840FFF7FBBA044BF1
:101CA00001221A7038BD00BF19EDFF1F1CEDFF1F88
:101CB00018EDFF1F7047082310B5C0F88030FF23D0
:101CC000044680F884300021802200F023FB204667
:101CD00010BDFFFF0148FFF7EEBF00BF2CEDFF1F57
:101CE0007047704703460846194600F001B800BF28
:101CF00030B405460C46134602202946224630BC25
:101D000000F086BB70B542F6240642F62405C0F208
:101D10000006C0F20005761BB61007D0043D002473
:101D200055F8043F01349847A642F9D142F64406DB
:101D300042F62405C0F20006C0F20005761B00F052
:101D40006BFDB61008D0043D002455F8043F013463
:101D50009847A642F9D170BD70BD00BF4EF2B043A6
:101D60000146C1F6FF73186800F008B84EF2B043A0
:101D70000146C1F6FF73186800F00CBC2DE9F04F66
:101D800001F10B04162C83B0074630D924F0070468
:101D9000E30F8C422CBF194643F0010100292FD1DB
:101DA000384600F01DFBB4F5FC7F2ED24FEAD40C70
:101DB0004EF2A456C1F6FF7606EBCC02D3689342EE
:101DC00000F01182596803F10808DA68384621F0FA
:101DD000030499681B195C68CA6044F001049160AF
:101DE0005C6000F0FFFA404603B0BDE8F08F0023CE
:101DF00010248C422CBF194643F001010029CFD09A
:101E00000C234FF000083B60EDE75FEA542C04BF61
:101E10004FEAD40C4FEA4C0540F08F804EF2A456A6
:101E2000C1F6FF7606EB8505EB689D4206D10DE015
:101E3000002A80F25581DB689D4207D0596821F065
:101E400003010A1B0F2AF3DD0CF1FF3C0CF1010C1E
:101E50004EF2A4523369C1F6FF7202F1080E7345C7
:101E600008BFD2F8049022D0586820F00300011B6C
:101E70000F2900F384810029C2F814E0C2F810E0B1
:101E800066DAB0F5007F80F04E81C1084FF001089E
:101E900002EBC100891008FA01F851688568D86022
:101EA00048EA0109C2F804909D60EB60836001225A
:101EB0004FEAAC0302FA03F34B4554D819EA030F77
:101EC0000DD193402CF0030C19EA030F0CF1040C14
:101ED00005D15B000CF1040C19EA030FF9D006EBF5
:101EE000CC09E0464846C268904207D15BE1002930
:101EF00080F28381D268904200F05581556825F0C8
:101F00000305291B0F29F2DD90461319D56844F00B
:101F1000010058F8084F41F0010C50603846C3F8F2
:101F200004C0E560AC6073613361C3F80CE0C3F8D2
:101F300008E0595000F056FA55E7BCF1040F00F2E2
:101F4000DE804FEA941C0CF1380C4FEA4C0565E733
:101F50001A1803F108083846536843F00103536028
:101F600000F040FA3FE7B5686B6823F0030A544578
:101F700004D8C4EB0A030F2B00F3A4804EF6B45927
:101F8000D6F80814C1F6FF7905EB0A020131D9F839
:101F90000030234408BF03F1100B06D003F5805333
:101FA0000F3323F47F6323F00F0B38465946019219
:101FB00000F01AFA019A411C804600F068818242C2
:101FC00000F23181D9F8043042455B44C9F804304D
:101FD00000F06681D6F808144EF2A450C1F6FF70E6
:101FE000013117BFC2EB0802C0F808849B18C9F87A
:101FF000043018F0070338461FBFC3F10802C3F5C9
:102000008053904403F1080208EB0B0308BF4FF420
:1020100080521B051B0DC3EB020B594600F0E4F97F
:10202000431C00F04981C8EB0001594441F0010113
:10203000D9F80430B5424EF6B452C6F808805B4475
:10204000C1F6FF72C8F80410C9F8043018D0BAF10C
:102050000F0F40F20B81AAF10C00696820F0070015
:102060004FF0050C05EB000E0F2801F0010140EACE
:1020700001016960CEF804C0CEF808C000F22081EA
:102080004EF6B452D9F82C10C1F6FF72B5688B42E7
:10209000D9F8301088BFD3624EF6B452C1F6FF7241
:1020A0008B4288BF13636A6822F003029442C4EB38
:1020B000020301D80F2B05DC38464FF0000800F072
:1020C00091F990E62A1943F0010344F001043846DF
:1020D0006C6005F108085360B26000F083F982E695
:1020E0005918DA689C6838464D6803F1080845F0CD
:1020F0000105E26094604D6000F074F973E6BCF194
:10210000140F9CBF0CF15B0C4FEA4C057FF686AEBA
:10211000BCF1540F00F293804FEA143C0CF16E0CAA
:102120004FEA4C057AE6420A042A75D9142A9CBF64
:1021300002F15B094FEA490508D9542A00F2C98027
:102140004FEA103909F16E094FEA490506EB85059A
:102150004EF2A458C1F6FF78AA68AA4279D0516815
:1021600021F00301884202D292689542F7D1D068EB
:10217000D6F80490D8609A60D360836097E61D1902
:1021800041F00106556144F00104156138465C6078
:1021900003F10808C5F80CE0C5F808E06E60695066
:1021A00000F020F91FE608F10108083018F0030FCD
:1021B0007FF499AE4A461CF0030FA2F108010CF11E
:1021C000FF3C00F09E8012688A42F4D072685B0087
:1021D00093423FF6C8AE002B3FF4C5AE1A4200F062
:1021E0009580C4467BE603F108025B699A4208BF0A
:1021F0000CF1020C3FF42CAEE4E590465519D3687F
:10220000384658F8082F6968D36041F001019A6098
:10221000696000F0E7F8E6E54FEA901909F138093E
:102220004FEA490592E7B5424EF2A453C1F6FF7357
:102230003FF4C8AE9D686A6822F0030236E7BCF539
:10224000AA7F19D84FEAD43C0CF1770C4FEA4C0521
:10225000E4E50125D8F804104FEAA909104605FA6B
:1022600009F545EA0109C8F8049083E701234546CA
:10227000C8F80430002219E740F254539C450BD8AB
:102280004FEA944C0CF17C0C4FEA4C05C6E5B5685E
:102290006A6822F0030209E7FC254FF07E0CBDE5D9
:1022A0001105090D00297FF495AEB2680BEB0A0108
:1022B00041F001015160E3E601214FF0000BB7E668
:1022C000384605F10801019200F064F9019A53685B
:1022D000D6E6B2F5AA7F06D84FEAD03909F17709D8
:1022E0004FEA490532E740F25451FC258A424FF04B
:1022F0007E099EBF4FEA904909F17C094FEA4905E2
:1023000024E7726822EA0302726060E75B0008F16A
:10231000040863E7032AC9B270B408D82AB1034697
:10232000121803F8011B9342FBD170BC704783075E
:10233000024409D0441C04F00305234604F8011CA0
:102340000134002DF7D100E00346D51A01EB01243A
:102350003F2D04EB04442CDD1C604033D51A43F8B8
:102360003C4C3F2D43F8384C43F8344C43F8304C48
:1023700043F82C4C43F8284C43F8244C43F8204CA9
:1023800043F81C4C43F8184C43F8144C43F8104CD9
:1023900043F80C4C43F8084C43F8044CDCDC08E0F0
:1023A0001C601033D51A43F80C4C43F8084C43F822
:1023B000044C0F2DF4DC032D08DD1D1D561B45F8C4
:1023C000044C032E2B4605F10405F7DC9A42ACD9E8
:1023D0000133013203F8011C01339342FAD1A4E71F
:1023E000704700BF704700BF38B54EF6F854C1F6CD
:1023F000FF740546084600232360FEF71DFA431CC0
:1024000000D038BD2368002BFBD02B6038BD00BF47
:102410002DE9F04142F61004C0F2000484B00746F2
:102420002568AC6C002C42D066681F2E1ADD41F680
:102430005D54C0F2000424B94FF0FF3004B0BDE891
:10244000F0818C20039102920193FFF787FC03999E
:10245000029A019B04460028EED0A86C002684E86E
:102460004100AC64DFB1D4F8886026B3D6F80081AF
:1024700065680120022F05F1200C00FA05F046F8EE
:10248000252048EA000246F82C3008BFD6F804316F
:10249000C6F8002104BF1843C6F8040100E06568CF
:1024A000AB1C00200135656044F82310C6E705F138
:1024B0004C04AC64B8E741F65D50C0F2000000285F
:1024C000BAD04FF48470039102920193FFF746FC57
:1024D0000399029A019B06460028ADD00020C6F859
:1024E0000001C6F804018046C4F88860C0E700BF58
:1024F000F8B54EF2A454C1F6FF740F460546FFF737
:102500006FFFA3685E6826F0030606F6EF73DF1B15
:102510003F0B013F3F03B7F5805F07DB00212846F3
:10252000FFF762FFA3689B19984204D02846FFF783
:1025300059FF0020F8BD79422846FFF755FF0130CA
:1025400010D04EF6B853A168C1F6FF73F61B2846AB
:1025500046F001061A684E60D71B1F60FFF742FF66
:102560000120F8BD00212846FFF73EFFA368C21AEC
:102570000F2ADBDD4EF6AC144EF6B851C1F6FF74EF
:10258000C1F6FF7142F001025A602368C01A086068
:10259000CCE700BF2DE9F0410E46804600295CD013
:1025A000FFF71EFF4EF2A45556F8041CC1F6FF7546
:1025B000A6F1080421F00103AF68E21897425068C1
:1025C00020F0030067D011F00101506035D00021E8
:1025D0001618766816F0010F06D11B1890680029AE
:1025E0004DD0D268C260906043F00102E350626057
:1025F000F1B9B3F5007F32D35A0A042A6CD898098E
:102600003830410005EB81054EF2A451C1F6FF714F
:10261000AA68AA426BD0516821F003018B4202D212
:1026200092689542F7D1D368E360A260D4609C6061
:102630004046BDE8F041FFF7D5BE56F8086C05F1FD
:10264000080CA41B9B19A668664543D0D4F80CC09F
:10265000C6F80CC0CCF80860BAE7BDE8F081DB082A
:102660000121686805EBC3029B1001FA03F3E260E5
:10267000916818436860A160CC609460D8E7294EE7
:10268000B042AED16C6143F001022C61E060A06009
:102690006260E350CCE7C018CB0707D456F8083C7B
:1026A000E41AC018A268E368D3609A604EF6B012CC
:1026B00040F00103C1F6FF726360AC60136898429A
:1026C000B6D34EF6B4534046C1F6FF731968FFF710
:1026D0000FFFADE701217BE702F15B004100142A07
:1026E00090D9542A0CD8180B6E3041008AE7012685
:1026F0004D688010134606FA00F005434D6093E7DD
:10270000B2F5AA7F03D8D80B773041007AE740F2C0
:1027100054518A4203D8980C7C30410072E7FC2166
:102720007E206FE7ACE5FF1F000000000000000006
:10273000E9040000D904000001050000F9040000CC
:10274000FD040000F504000000000000000000008F
:102750003105000021050000490500004105000089
:10276000450500003D0500000000000000000000DD
:102770007905000069050000910500008905000049
:102780008D0500008505000000000000000000002D
:10279000B10500000000000000151915000100003F
:1027A0000CE4FF1F120000000002000036E4FF1FCF
:1027B000430000000003000090E4FF1F0000000041
:1027C000010309041EE4FF1F0000000002030904C6
:1027D0007AE4FF1F000000000303090494E4FF1FD4
:1027E00000000000000000000000000000000000E9
:1027F0000000000000000000D9190000D1190000FD
:10280000EB190000E7190000E3190000DF190000D0
:10281000B4E4FF1F43000000F8B500BFF8BC08BCDB
:102820009E46704799040000050500004D05000014
:1028300095050000F50500005D070000F119000096
:04284000D51C0000A3
:10284400000000000A040000FCEDFF1F120100025A
:1028540002000040C01683040001010203011803B2
:102864005400650065006E00730079006400750013
:1028740069006E006F0009024300020100C03209C2
:1028840004000001020201000524001001052401D6
:102894000101042402060524060001070582031031
:1028A400004009040100020A000000070503024079
:1028B4000000070584024000000016035500530081
:1028C40042002000530065007200690061006C0042
:1028D400040309040C0300000000000000000000D1
:1028E400000000000000000000000000FFFFFFFFE8
:1028F400B4E4FF1F0000000000000000000000001E
:1029040000000000000000000000000000000000C3
:102914000000000014280000000000000000000077
:1029240000000000000000000000000000000000A3
:102934000000000000000000000000000000000093
:102944000000000000000000000000000000000083
:102954000000000000000000000000000000000073
:102964000000000000000000000000000000000063
:102974000000000000000000000000000000000053
:102984000000000000000000000000000000000043
:102994000000000000000000000000000000000033
:1029A4000000000000000000000000000000000023
:1029B4000000000000000000000000000000000013
:1029C4000000000000000000000000000000000003
:1029D40000000000000000000000000000000000F3
:1029E400000000000000000000000000A4E5FF1F3C
:1029F400A4E5FF1FACE5FF1FACE5FF1FB4E5FF1F17
:102A0400B4E5FF1FBCE5FF1FBCE5FF1FC4E5FF1FC6
:102A1400C4E5FF1FCCE5FF1FCCE5FF1FD4E5FF1F76
:102A2400D4E5FF1FDCE5FF1FDCE5FF1FE4E5FF1F26
:102A3400E4E5FF1FECE5FF1FECE5FF1FF4E5FF1FD6
:102A4400F4E5FF1FFCE5FF1FFCE5FF1F04E6FF1F85
:102A540004E6FF1F0CE6FF1F0CE6FF1F14E6FF1F32
:102A640014E6FF1F1CE6FF1F1CE6FF1F24E6FF1FE2
:102A740024E6FF1F2CE6FF1F2CE6FF1F34E6FF1F92
:102A840034E6FF1F3CE6FF1F3CE6FF1F44E6FF1F42
:102A940044E6FF1F4CE6FF1F4CE6FF1F54E6FF1FF2
:102AA40054E6FF1F5CE6FF1F5CE6FF1F64E6FF1FA2
:102AB40064E6FF1F6CE6FF1F6CE6FF1F74E6FF1F52
:102AC40074E6FF1F7CE6FF1F7CE6FF1F84E6FF1F02
:102AD40084E6FF1F8CE6FF1F8CE6FF1F94E6FF1FB2
:102AE40094E6FF1F9CE6FF1F9CE6FF1FA4E6FF1F62
:102AF400A4E6FF1FACE6FF1FACE6FF1FB4E6FF1F12
:102B0400B4E6FF1FBCE6FF1FBCE6FF1FC4E6FF1FC1
:102B1400C4E6FF1FCCE6FF1FCCE6FF1FD4E6FF1F71
:102B2400D4E6FF1FDCE6FF1FDCE6FF1FE4E6FF1F21
:102B3400E4E6FF1FECE6FF1FECE6FF1FF4E6FF1FD1
:102B4400F4E6FF1FFCE6FF1FFCE6FF1F04E7FF1F80
:102B540004E7FF1F0CE7FF1F0CE7FF1F14E7FF1F2D
:102B640014E7FF1F1CE7FF1F1CE7FF1F24E7FF1FDD
:102B740024E7FF1F2CE7FF1F2CE7FF1F34E7FF1F8D
:102B840034E7FF1F3CE7FF1F3CE7FF1F44E7FF1F3D
:102B940044E7FF1F4CE7FF1F4CE7FF1F54E7FF1FED
:102BA40054E7FF1F5CE7FF1F5CE7FF1F64E7FF1F9D
:102BB40064E7FF1F6CE7FF1F6CE7FF1F74E7FF1F4D
:102BC40074E7FF1F7CE7FF1F7CE7FF1F84E7FF1FFD
:102BD40084E7FF1F8CE7FF1F8CE7FF1F94E7FF1FAD
:102BE40094E7FF1F9CE7FF1F9CE7FF1FA4E7FF1F5D
:102BF400A4E7FF1FACE7FF1FACE7FF1FB4E7FF1F0D
:102C0400B4E7FF1FBCE7FF1FBCE7FF1FC4E7FF1FBC
:102C1400C4E7FF1FCCE7FF1FCCE7FF1FD4E7FF1F6C
:102C2400D4E7FF1FDCE7FF1FDCE7FF1FE4E7FF1F1C
:102C3400E4E7FF1FECE7FF1FECE7FF1FF4E7FF1FCC
:102C4400F4E7FF1FFCE7FF1FFCE7FF1F04E8FF1F7B
:102C540004E8FF1F0CE8FF1F0CE8FF1F14E8FF1F28
:102C640014E8FF1F1CE8FF1F1CE8FF1F24E8FF1FD8
:102C740024E8FF1F2CE8FF1F2CE8FF1F34E8FF1F88
:102C840034E8FF1F3CE8FF1F3CE8FF1F44E8FF1F38
:102C940044E8FF1F4CE8FF1F4CE8FF1F54E8FF1FE8
:102CA40054E8FF1F5CE8FF1F5CE8FF1F64E8FF1F98
:102CB40064E8FF1F6CE8FF1F6CE8FF1F74E8FF1F48
:102CC40074E8FF1F7CE8FF1F7CE8FF1F84E8FF1FF8
:102CD40084E8FF1F8CE8FF1F8CE8FF1F94E8FF1FA8
:102CE40094E8FF1F9CE8FF1F9CE8FF1FA4E8FF1F58
:102CF400A4E8FF1FACE8FF1FACE8FF1FB4E8FF1F08
:102D0400B4E8FF1FBCE8FF1FBCE8FF1FC4E8FF1FB7
:102D1400C4E8FF1FCCE8FF1FCCE8FF1FD4E8FF1F67
:102D2400D4E8FF1FDCE8FF1FDCE8FF1FE4E8FF1F17
:102D3400E4E8FF1FECE8FF1FECE8FF1FF4E8FF1FC7
:102D4400F4E8FF1FFCE8FF1FFCE8FF1F04E9FF1F76
:102D540004E9FF1F0CE9FF1F0CE9FF1F14E9FF1F23
:102D640014E9FF1F1CE9FF1F1CE9FF1F24E9FF1FD3
:102D740024E9FF1F2CE9FF1F2CE9FF1F34E9FF1F83
:102D840034E9FF1F3CE9FF1F3CE9FF1F44E9FF1F33
:102D940044E9FF1F4CE9FF1F4CE9FF1F54E9FF1FE3
:102DA40054E9FF1F5CE9FF1F5CE9FF1F64E9FF1F93
:102DB40064E9FF1F6CE9FF1F6CE9FF1F74E9FF1F43
:102DC40074E9FF1F7CE9FF1F7CE9FF1F84E9FF1FF3
:102DD40084E9FF1F8CE9FF1F8CE9FF1F94E9FF1FA3
:102DE40094E9FF1F9CE9FF1F9CE9FF1FFFFFFFFF02
:042DF40000000200D9
:00000001FF
